{
  "contractName": "Mycelia",
  "abi": [
    {
      "inputs": [
        {
          "internalType": "address",
          "name": "genesisOracle",
          "type": "address"
        }
      ],
      "stateMutability": "nonpayable",
      "type": "constructor"
    },
    {
      "inputs": [
        {
          "internalType": "uint8",
          "name": "parity",
          "type": "uint8"
        },
        {
          "internalType": "bytes32",
          "name": "px",
          "type": "bytes32"
        },
        {
          "internalType": "bytes32",
          "name": "e",
          "type": "bytes32"
        },
        {
          "internalType": "bytes32",
          "name": "s",
          "type": "bytes32"
        },
        {
          "internalType": "bytes32",
          "name": "message",
          "type": "bytes32"
        }
      ],
      "name": "verify",
      "outputs": [
        {
          "internalType": "bool",
          "name": "",
          "type": "bool"
        }
      ],
      "stateMutability": "view",
      "type": "function",
      "constant": true
    }
  ],
  "bytecode": "0x608060405234801561000f575f80fd5b506040516104da3803806104da833981810160405281019061003191906100d4565b805f806101000a81548173ffffffffffffffffffffffffffffffffffffffff021916908373ffffffffffffffffffffffffffffffffffffffff160217905550506100ff565b5f80fd5b5f73ffffffffffffffffffffffffffffffffffffffff82169050919050565b5f6100a38261007a565b9050919050565b6100b381610099565b81146100bd575f80fd5b50565b5f815190506100ce816100aa565b92915050565b5f602082840312156100e9576100e8610076565b5b5f6100f6848285016100c0565b91505092915050565b6103ce8061010c5f395ff3fe608060405234801561000f575f80fd5b5060043610610029575f3560e01c80639186da4c1461002d575b5f80fd5b610047600480360381019061004291906101cc565b61005d565b604051610054919061025d565b60405180910390f35b5f806040518060a001604052808860ff1681526020018781526020018481526020018681526020018581525090505f73__Schnorr_______________________________63f1e9ca59836040518263ffffffff1660e01b81526004016100c391906102fa565b602060405180830381865af41580156100de573d5f803e3d5ffd5b505050506040513d601f19601f82011682018060405250810190610102919061036d565b90505f8054906101000a900473ffffffffffffffffffffffffffffffffffffffff1673ffffffffffffffffffffffffffffffffffffffff168173ffffffffffffffffffffffffffffffffffffffff16149250505095945050505050565b5f80fd5b5f60ff82169050919050565b61017881610163565b8114610182575f80fd5b50565b5f813590506101938161016f565b92915050565b5f819050919050565b6101ab81610199565b81146101b5575f80fd5b50565b5f813590506101c6816101a2565b92915050565b5f805f805f60a086880312156101e5576101e461015f565b5b5f6101f288828901610185565b9550506020610203888289016101b8565b9450506040610214888289016101b8565b9350506060610225888289016101b8565b9250506080610236888289016101b8565b9150509295509295909350565b5f8115159050919050565b61025781610243565b82525050565b5f6020820190506102705f83018461024e565b92915050565b61027f81610163565b82525050565b61028e81610199565b82525050565b60a082015f8201516102a85f850182610276565b5060208201516102bb6020850182610285565b5060408201516102ce6040850182610285565b5060608201516102e16060850182610285565b5060808201516102f46080850182610285565b50505050565b5f60a08201905061030d5f830184610294565b92915050565b5f73ffffffffffffffffffffffffffffffffffffffff82169050919050565b5f61033c82610313565b9050919050565b61034c81610332565b8114610356575f80fd5b50565b5f8151905061036781610343565b92915050565b5f602082840312156103825761038161015f565b5b5f61038f84828501610359565b9150509291505056fea26469706673582212202d2c282b50af69d56893675b649bea90269c6f60edc4086e052a96d9db10414064736f6c63430008190033",
  "immutableReferences": {},
  "source": "// SPDX-License-Identifier: LGPLv3\npragma solidity ^0.8.0;\n\nimport {Schnorr} from \"./Schnorr.sol\";\n\ncontract Mycelia {\n\n    address oracle;\n\n    constructor(address genesisOracle) {\n        oracle = genesisOracle;\n    }\n\n    function verify(\n        uint8 parity,\n        bytes32 px,\n        bytes32 e,\n        bytes32 s,\n        bytes32 message\n    ) public view returns (bool) {\n        Schnorr.SchnorrSignature memory sig = Schnorr.SchnorrSignature({\n            parity: parity,\n            px: px,\n            e: e,\n            s: s,\n            message: message\n        });\n\n        address signer = Schnorr.recover(sig);\n\n        // Return true if the signer matches the oracle, else false\n        return signer == oracle;\n    }\n}\n",
  "sourcePath": "/Users/anuragdeotale/Documents/dappp1/contracts/Mycelia.sol",
  "compiler": {
    "name": "solc",
    "version": "0.8.25+commit.b61c2a91.Emscripten.clang"
  },
  "schemaVersion": "3.4.16",
  "updatedAt": "2024-05-10T04:25:33.760Z",
  "networkType": "ethereum",
  "devdoc": {
    "kind": "dev",
    "methods": {},
    "version": 1
  },
  "userdoc": {
    "kind": "user",
    "methods": {},
    "version": 1
  }
}