{
  "contractName": "Mycelia",
  "abi": [
    {
      "inputs": [
        {
          "internalType": "address",
          "name": "genesisOracle",
          "type": "address"
        }
      ],
      "stateMutability": "nonpayable",
      "type": "constructor"
    },
    {
      "inputs": [],
      "name": "InvalidRequest",
      "type": "error"
    },
    {
      "inputs": [],
      "name": "InvalidSignature",
      "type": "error"
    },
    {
      "inputs": [
        {
          "internalType": "uint256",
          "name": "chainId",
          "type": "uint256"
        },
        {
          "internalType": "address",
          "name": "_contract",
          "type": "address"
        },
        {
          "internalType": "bytes",
          "name": "data",
          "type": "bytes"
        },
        {
          "internalType": "bytes",
          "name": "response",
          "type": "bytes"
        }
      ],
      "name": "verify",
      "outputs": [
        {
          "internalType": "bytes",
          "name": "",
          "type": "bytes"
        }
      ],
      "stateMutability": "view",
      "type": "function",
      "constant": true
    }
  ],
  "bytecode": "0x608060405234801561000f575f80fd5b506040516107a23803806107a2833981810160405281019061003191906100d4565b805f806101000a81548173ffffffffffffffffffffffffffffffffffffffff021916908373ffffffffffffffffffffffffffffffffffffffff160217905550506100ff565b5f80fd5b5f73ffffffffffffffffffffffffffffffffffffffff82169050919050565b5f6100a38261007a565b9050919050565b6100b381610099565b81146100bd575f80fd5b50565b5f815190506100ce816100aa565b92915050565b5f602082840312156100e9576100e8610076565b5b5f6100f6848285016100c0565b91505092915050565b6106968061010c5f395ff3fe608060405234801561000f575f80fd5b5060043610610029575f3560e01c80633e9937781461002d575b5f80fd5b6100476004803603810190610042919061038f565b61005d565b60405161005491906104a2565b60405180910390f35b60605f87878787878760405160200161007b9695949392919061051a565b6040516020818303038152906040528051906020012090505f6040518060a00160405280601c60ff1681526020017f40822101b62ed3ad321fe7c140fea79ee90f43c392f04b3784e7ff9c644ffed45f1b81526020017fb76929c381d1ca8b5ea69d4f69ef61d234effc844481959ff5cd23eff9277df55f1b81526020017fa2fdcd6f4de6028a6510e92ad651c6aec2bd9cd4bc894e3bb4438407c8c9184b5f1b81526020017f5debd610848954b9da43b3b6b3b37c680a8979281206687eef403f0b5f857f4d5f1b81525090505f73__Schnorr_______________________________63f1e9ca59836040518263ffffffff1660e01b81526004016101819190610608565b602060405180830381865af415801561019c573d5f803e3d5ffd5b505050506040513d601f19601f820116820180604052508101906101c09190610635565b90505f8054906101000a900473ffffffffffffffffffffffffffffffffffffffff1673ffffffffffffffffffffffffffffffffffffffff168173ffffffffffffffffffffffffffffffffffffffff1614610246576040517f8baa579f00000000000000000000000000000000000000000000000000000000815260040160405180910390fd5b85858080601f0160208091040260200160405190810160405280939291908181526020018383808284375f81840152601f19601f8201169050808301925050505050505093505050509695505050505050565b5f80fd5b5f80fd5b5f819050919050565b6102b3816102a1565b81146102bd575f80fd5b50565b5f813590506102ce816102aa565b92915050565b5f73ffffffffffffffffffffffffffffffffffffffff82169050919050565b5f6102fd826102d4565b9050919050565b61030d816102f3565b8114610317575f80fd5b50565b5f8135905061032881610304565b92915050565b5f80fd5b5f80fd5b5f80fd5b5f8083601f84011261034f5761034e61032e565b5b8235905067ffffffffffffffff81111561036c5761036b610332565b5b60208301915083600182028301111561038857610387610336565b5b9250929050565b5f805f805f80608087890312156103a9576103a8610299565b5b5f6103b689828a016102c0565b96505060206103c789828a0161031a565b955050604087013567ffffffffffffffff8111156103e8576103e761029d565b5b6103f489828a0161033a565b9450945050606087013567ffffffffffffffff8111156104175761041661029d565b5b61042389828a0161033a565b92509250509295509295509295565b5f81519050919050565b5f82825260208201905092915050565b8281835e5f83830152505050565b5f601f19601f8301169050919050565b5f61047482610432565b61047e818561043c565b935061048e81856020860161044c565b6104978161045a565b840191505092915050565b5f6020820190508181035f8301526104ba818461046a565b905092915050565b6104cb816102a1565b82525050565b6104da816102f3565b82525050565b828183375f83830152505050565b5f6104f9838561043c565b93506105068385846104e0565b61050f8361045a565b840190509392505050565b5f60808201905061052d5f8301896104c2565b61053a60208301886104d1565b818103604083015261054d8186886104ee565b905081810360608301526105628184866104ee565b9050979650505050505050565b5f60ff82169050919050565b6105848161056f565b82525050565b5f819050919050565b61059c8161058a565b82525050565b60a082015f8201516105b65f85018261057b565b5060208201516105c96020850182610593565b5060408201516105dc6040850182610593565b5060608201516105ef6060850182610593565b5060808201516106026080850182610593565b50505050565b5f60a08201905061061b5f8301846105a2565b92915050565b5f8151905061062f81610304565b92915050565b5f6020828403121561064a57610649610299565b5b5f61065784828501610621565b9150509291505056fea26469706673582212201d8b054b10555605abc5bdf0b62b32f43fd21d2f86fa912184cbecb376bc75f864736f6c63430008190033",
  "immutableReferences": {},
  "source": "// SPDX-License-Identifier: LGPLv3\npragma solidity ^0.8.0;\n\nimport {Schnorr} from \"./Schnorr.sol\";\n\ncontract Mycelia {\n    error InvalidRequest();\n    error InvalidSignature();\n\n    address oracle;\n\n    constructor(address genesisOracle) {\n        oracle = genesisOracle;\n    }\n\n    function verify(\n        uint256 chainId,\n        address _contract,\n        bytes calldata data,\n        bytes calldata response\n    ) public view returns (bytes memory) {\n        bytes32 request = keccak256(abi.encode(chainId, _contract, data, response));\n        \n        Schnorr.SchnorrSignature memory sig = Schnorr.SchnorrSignature({\n            parity: 28,\n            px: 0x40822101b62ed3ad321fe7c140fea79ee90f43c392f04b3784e7ff9c644ffed4,\n            message: 0xb76929c381d1ca8b5ea69d4f69ef61d234effc844481959ff5cd23eff9277df5,\n            e: 0xa2fdcd6f4de6028a6510e92ad651c6aec2bd9cd4bc894e3bb4438407c8c9184b,\n            s: 0x5debd610848954b9da43b3b6b3b37c680a8979281206687eef403f0b5f857f4d\n        });\n        \n        address signer = Schnorr.recover(sig);\n\n        if (signer != oracle) revert InvalidSignature();\n\n        return response;\n    }\n}\n",
  "sourcePath": "/Users/anuragdeotale/Documents/dappp1/contracts/Mycelia.sol",
  "compiler": {
    "name": "solc",
    "version": "0.8.25+commit.b61c2a91.Emscripten.clang"
  },
  "schemaVersion": "3.4.16",
  "updatedAt": "2024-05-10T01:56:01.608Z",
  "networkType": "ethereum",
  "devdoc": {
    "kind": "dev",
    "methods": {},
    "version": 1
  },
  "userdoc": {
    "kind": "user",
    "methods": {},
    "version": 1
  }
}