{
  "contractName": "Schnorr",
  "abi": [
    {
      "inputs": [],
      "name": "EcrecoverFailed",
      "type": "error"
    },
    {
      "inputs": [],
      "name": "InvalidSignature",
      "type": "error"
    },
    {
      "inputs": [],
      "name": "InvalidSigner",
      "type": "error"
    },
    {
      "inputs": [],
      "name": "Q",
      "outputs": [
        {
          "internalType": "uint256",
          "name": "",
          "type": "uint256"
        }
      ],
      "stateMutability": "view",
      "type": "function",
      "constant": true
    },
    {
      "inputs": [
        {
          "components": [
            {
              "internalType": "uint8",
              "name": "parity",
              "type": "uint8"
            },
            {
              "internalType": "bytes32",
              "name": "px",
              "type": "bytes32"
            },
            {
              "internalType": "bytes32",
              "name": "message",
              "type": "bytes32"
            },
            {
              "internalType": "bytes32",
              "name": "e",
              "type": "bytes32"
            },
            {
              "internalType": "bytes32",
              "name": "s",
              "type": "bytes32"
            }
          ],
          "internalType": "struct Schnorr.SchnorrSignature",
          "name": "signature",
          "type": "tuple"
        }
      ],
      "name": "recover",
      "outputs": [
        {
          "internalType": "address",
          "name": "",
          "type": "address"
        }
      ],
      "stateMutability": "pure",
      "type": "function",
      "constant": true
    }
  ],
  "bytecode": "0x61067661004d600b8282823980515f1a6073146041577f4e487b71000000000000000000000000000000000000000000000000000000005f525f60045260245ffd5b305f52607381538281f3fe730000000000000000000000000000000000000000301460806040526004361061003f575f3560e01c8063e493ef8c14610043578063f1e9ca5914610061575b5f80fd5b61004b610091565b6040516100589190610340565b60405180910390f35b61007b6004803603810190610076919061037f565b6100b5565b60405161008891906103e9565b60405180910390f35b7ffffffffffffffffffffffffffffffffebaaedce6af48a03bbfd25e8cd036414181565b5f807ffffffffffffffffffffffffffffffffebaaedce6af48a03bbfd25e8cd0364141806100e6576100e5610402565b5b83602001355f1c84608001355f1c097ffffffffffffffffffffffffffffffffebaaedce6af48a03bbfd25e8cd0364141610120919061045c565b5f1b90505f7ffffffffffffffffffffffffffffffffebaaedce6af48a03bbfd25e8cd03641418061015457610153610402565b5b84602001355f1c85606001355f1c097ffffffffffffffffffffffffffffffffebaaedce6af48a03bbfd25e8cd036414161018e919061045c565b5f1b90505f801b82036101cd576040517f8baa579f00000000000000000000000000000000000000000000000000000000815260040160405180910390fd5b5f600183865f0160208101906101e391906104c5565b8760200135856040515f81526020016040526040516102059493929190610517565b6020604051602081039080840390855afa158015610225573d5f803e3d5ffd5b5050506020604051035190505f73ffffffffffffffffffffffffffffffffffffffff168173ffffffffffffffffffffffffffffffffffffffff1603610296576040517f8baa579f00000000000000000000000000000000000000000000000000000000815260040160405180910390fd5b5f81865f0160208101906102aa91906104c5565b876020013588604001356040516020016102c794939291906105f3565b6040516020818303038152906040528051906020012090508086606001351461031c576040517f8baa579f00000000000000000000000000000000000000000000000000000000815260040160405180910390fd5b81945050505050919050565b5f819050919050565b61033a81610328565b82525050565b5f6020820190506103535f830184610331565b92915050565b5f80fd5b5f80fd5b5f60a082840312156103765761037561035d565b5b81905092915050565b5f60a0828403121561039457610393610359565b5b5f6103a184828501610361565b91505092915050565b5f73ffffffffffffffffffffffffffffffffffffffff82169050919050565b5f6103d3826103aa565b9050919050565b6103e3816103c9565b82525050565b5f6020820190506103fc5f8301846103da565b92915050565b7f4e487b71000000000000000000000000000000000000000000000000000000005f52601260045260245ffd5b7f4e487b71000000000000000000000000000000000000000000000000000000005f52601160045260245ffd5b5f61046682610328565b915061047183610328565b92508282039050818111156104895761048861042f565b5b92915050565b5f60ff82169050919050565b6104a48161048f565b81146104ae575f80fd5b50565b5f813590506104bf8161049b565b92915050565b5f602082840312156104da576104d9610359565b5b5f6104e7848285016104b1565b91505092915050565b5f819050919050565b610502816104f0565b82525050565b6105118161048f565b82525050565b5f60808201905061052a5f8301876104f9565b6105376020830186610508565b61054460408301856104f9565b61055160608301846104f9565b95945050505050565b5f8160601b9050919050565b5f6105708261055a565b9050919050565b5f61058182610566565b9050919050565b610599610594826103c9565b610577565b82525050565b5f8160f81b9050919050565b5f6105b58261059f565b9050919050565b6105cd6105c88261048f565b6105ab565b82525050565b5f819050919050565b6105ed6105e8826104f0565b6105d3565b82525050565b5f6105fe8287610588565b60148201915061060e82866105bc565b60018201915061061e82856105dc565b60208201915061062e82846105dc565b6020820191508190509594505050505056fea2646970667358221220e7b1f4fa008062f91a4f41d26b1c85de26f9cf442bb2ec3e833e6220bf25f18764736f6c63430008190033",
  "immutableReferences": {},
  "source": "// SPDX-License-Identifier: LGPLv3\n// Source: https://hackmd.io/@nZ-twauPRISEa6G9zg3XRw/SyjJzSLt9\npragma solidity ^0.8.0;\n\n\nlibrary Schnorr {\n    error EcrecoverFailed();\n    error InvalidSigner();\n    error InvalidSignature();\n\n    // secp256k1 group order\n    uint256 public constant Q = 0xFFFFFFFFFFFFFFFFFFFFFFFFFFFFFFFEBAAEDCE6AF48A03BBFD25E8CD0364141;\n\n    // parity := public key y-coord parity (27 or 28)\n    // px := public key x-coord\n    // message := 32-byte message\n    // e := schnorr signature challenge\n    // s := schnorr signature\n    struct SchnorrSignature {\n        uint8 parity;\n        bytes32 px;\n        bytes32 message;\n        bytes32 e;\n        bytes32 s;\n    }\n\n    function recover(SchnorrSignature calldata signature) public pure returns (address) {\n        // ecrecover inputs are (m, v, r, s);\n        bytes32 sp = bytes32(Q - mulmod(uint256(signature.s), uint256(signature.px), Q));\n        bytes32 ep = bytes32(Q - mulmod(uint256(signature.e), uint256(signature.px), Q));\n\n        if (sp == 0) revert InvalidSignature();\n\n        // the ecrecover precompile implementation checks that the `r` and `s`\n        // inputs are non-zero (in this case, `px` and `ep`), thus we don't need to\n        // check if they're zero.\n        address R = ecrecover(sp, signature.parity, signature.px, ep);\n\n        if (R == address(0)) revert InvalidSignature();\n\n        bytes32 challenge = keccak256(abi.encodePacked(R, uint8(signature.parity), signature.px, signature.message));\n\n        if (signature.e != challenge) revert InvalidSignature();\n\n        return R;\n    }\n}\n",
  "sourcePath": "/Users/anuragdeotale/Documents/dappp1/contracts/Schnorr.sol",
  "compiler": {
    "name": "solc",
    "version": "0.8.25+commit.b61c2a91.Emscripten.clang"
  },
  "schemaVersion": "3.4.16",
  "updatedAt": "2024-05-10T04:25:33.757Z",
  "networkType": "ethereum",
  "devdoc": {
    "kind": "dev",
    "methods": {},
    "version": 1
  },
  "userdoc": {
    "kind": "user",
    "methods": {},
    "version": 1
  }
}