{
  "contractName": "SimpleStorage",
  "abi": [
    {
      "inputs": [
        {
          "internalType": "address",
          "name": "myceliaAddress",
          "type": "address"
        }
      ],
      "stateMutability": "nonpayable",
      "type": "constructor"
    },
    {
      "inputs": [],
      "name": "mycelia",
      "outputs": [
        {
          "internalType": "contract Mycelia",
          "name": "",
          "type": "address"
        }
      ],
      "stateMutability": "view",
      "type": "function",
      "constant": true
    },
    {
      "inputs": [
        {
          "internalType": "uint8",
          "name": "parity",
          "type": "uint8"
        },
        {
          "internalType": "bytes32",
          "name": "px",
          "type": "bytes32"
        },
        {
          "internalType": "bytes32",
          "name": "e",
          "type": "bytes32"
        },
        {
          "internalType": "bytes32",
          "name": "s",
          "type": "bytes32"
        },
        {
          "internalType": "bytes32",
          "name": "message",
          "type": "bytes32"
        }
      ],
      "name": "storeValues",
      "outputs": [
        {
          "internalType": "bool",
          "name": "",
          "type": "bool"
        }
      ],
      "stateMutability": "nonpayable",
      "type": "function"
    }
  ],
  "bytecode": "0x608060405234801561000f575f80fd5b50604051610505380380610505833981810160405281019061003191906100d4565b805f806101000a81548173ffffffffffffffffffffffffffffffffffffffff021916908373ffffffffffffffffffffffffffffffffffffffff160217905550506100ff565b5f80fd5b5f73ffffffffffffffffffffffffffffffffffffffff82169050919050565b5f6100a38261007a565b9050919050565b6100b381610099565b81146100bd575f80fd5b50565b5f815190506100ce816100aa565b92915050565b5f602082840312156100e9576100e8610076565b5b5f6100f6848285016100c0565b91505092915050565b6103f98061010c5f395ff3fe608060405234801561000f575f80fd5b5060043610610034575f3560e01c80632de792e414610038578063ac63590114610068575b5f80fd5b610052600480360381019061004d91906101c2565b610086565b60405161005f9190610253565b60405180910390f35b610070610132565b60405161007d91906102e6565b60405180910390f35b5f805f9054906101000a900473ffffffffffffffffffffffffffffffffffffffff1673ffffffffffffffffffffffffffffffffffffffff16639186da4c87878787876040518663ffffffff1660e01b81526004016100e895949392919061031d565b602060405180830381865afa158015610103573d5f803e3d5ffd5b505050506040513d601f19601f820116820180604052508101906101279190610398565b905095945050505050565b5f8054906101000a900473ffffffffffffffffffffffffffffffffffffffff1681565b5f80fd5b5f60ff82169050919050565b61016e81610159565b8114610178575f80fd5b50565b5f8135905061018981610165565b92915050565b5f819050919050565b6101a18161018f565b81146101ab575f80fd5b50565b5f813590506101bc81610198565b92915050565b5f805f805f60a086880312156101db576101da610155565b5b5f6101e88882890161017b565b95505060206101f9888289016101ae565b945050604061020a888289016101ae565b935050606061021b888289016101ae565b925050608061022c888289016101ae565b9150509295509295909350565b5f8115159050919050565b61024d81610239565b82525050565b5f6020820190506102665f830184610244565b92915050565b5f73ffffffffffffffffffffffffffffffffffffffff82169050919050565b5f819050919050565b5f6102ae6102a96102a48461026c565b61028b565b61026c565b9050919050565b5f6102bf82610294565b9050919050565b5f6102d0826102b5565b9050919050565b6102e0816102c6565b82525050565b5f6020820190506102f95f8301846102d7565b92915050565b61030881610159565b82525050565b6103178161018f565b82525050565b5f60a0820190506103305f8301886102ff565b61033d602083018761030e565b61034a604083018661030e565b610357606083018561030e565b610364608083018461030e565b9695505050505050565b61037781610239565b8114610381575f80fd5b50565b5f815190506103928161036e565b92915050565b5f602082840312156103ad576103ac610155565b5b5f6103ba84828501610384565b9150509291505056fea26469706673582212201b75af6502e9ce34b8f064c2f8c1835e2831b3c94e02993a2388af8f2480b39a64736f6c63430008190033",
  "immutableReferences": {},
  "source": "// SPDX-License-Identifier: MIT\npragma solidity ^0.8.0;\n\nimport \"./Mycelia.sol\";\nimport \"truffle/console.sol\";\n\ncontract SimpleStorage {\n    Mycelia public mycelia;\n\n    constructor(address myceliaAddress) {\n        mycelia = Mycelia(myceliaAddress);\n    }\n\n    function storeValues(\n        uint8 parity,\n        bytes32 px,\n        bytes32 e,\n        bytes32 s,\n        bytes32 message\n    ) public returns (bool) {\n        // Call the updated verify function and return the result\n        return mycelia.verify(parity, px, e, s, message);\n    }\n}\n",
  "sourcePath": "/Users/anuragdeotale/Documents/dappp1/contracts/SimpleStorage.sol",
  "compiler": {
    "name": "solc",
    "version": "0.8.25+commit.b61c2a91.Emscripten.clang"
  },
  "schemaVersion": "3.4.16",
  "updatedAt": "2024-05-10T04:25:33.762Z",
  "networkType": "ethereum",
  "devdoc": {
    "kind": "dev",
    "methods": {},
    "version": 1
  },
  "userdoc": {
    "kind": "user",
    "methods": {},
    "version": 1
  }
}