{
  "contractName": "SimpleStorage",
  "abi": [
    {
      "inputs": [
        {
          "internalType": "address",
          "name": "myceliaAddress",
          "type": "address"
        }
      ],
      "stateMutability": "nonpayable",
      "type": "constructor"
    },
    {
      "inputs": [],
      "name": "chainId",
      "outputs": [
        {
          "internalType": "uint256",
          "name": "",
          "type": "uint256"
        }
      ],
      "stateMutability": "view",
      "type": "function",
      "constant": true
    },
    {
      "inputs": [],
      "name": "contractAddress",
      "outputs": [
        {
          "internalType": "address",
          "name": "",
          "type": "address"
        }
      ],
      "stateMutability": "view",
      "type": "function",
      "constant": true
    },
    {
      "inputs": [],
      "name": "data",
      "outputs": [
        {
          "internalType": "bytes",
          "name": "",
          "type": "bytes"
        }
      ],
      "stateMutability": "view",
      "type": "function",
      "constant": true
    },
    {
      "inputs": [],
      "name": "mycelia",
      "outputs": [
        {
          "internalType": "contract Mycelia",
          "name": "",
          "type": "address"
        }
      ],
      "stateMutability": "view",
      "type": "function",
      "constant": true
    },
    {
      "inputs": [],
      "name": "response",
      "outputs": [
        {
          "internalType": "bytes",
          "name": "",
          "type": "bytes"
        }
      ],
      "stateMutability": "view",
      "type": "function",
      "constant": true
    },
    {
      "inputs": [
        {
          "internalType": "uint256",
          "name": "_chainId",
          "type": "uint256"
        },
        {
          "internalType": "address",
          "name": "_contractAddress",
          "type": "address"
        },
        {
          "internalType": "bytes",
          "name": "_data",
          "type": "bytes"
        },
        {
          "internalType": "bytes",
          "name": "_response",
          "type": "bytes"
        }
      ],
      "name": "storeValues",
      "outputs": [
        {
          "internalType": "uint256",
          "name": "",
          "type": "uint256"
        },
        {
          "internalType": "address",
          "name": "",
          "type": "address"
        },
        {
          "internalType": "bytes",
          "name": "",
          "type": "bytes"
        },
        {
          "internalType": "bytes",
          "name": "",
          "type": "bytes"
        },
        {
          "internalType": "bytes",
          "name": "",
          "type": "bytes"
        }
      ],
      "stateMutability": "nonpayable",
      "type": "function"
    },
    {
      "inputs": [],
      "name": "getValues",
      "outputs": [
        {
          "internalType": "uint256",
          "name": "",
          "type": "uint256"
        },
        {
          "internalType": "address",
          "name": "",
          "type": "address"
        },
        {
          "internalType": "bytes",
          "name": "",
          "type": "bytes"
        },
        {
          "internalType": "bytes",
          "name": "",
          "type": "bytes"
        }
      ],
      "stateMutability": "view",
      "type": "function",
      "constant": true
    }
  ],
  "bytecode": "0x608060405234801561000f575f80fd5b50604051610fae380380610fae833981810160405281019061003191906100d5565b8060045f6101000a81548173ffffffffffffffffffffffffffffffffffffffff021916908373ffffffffffffffffffffffffffffffffffffffff16021790555050610100565b5f80fd5b5f73ffffffffffffffffffffffffffffffffffffffff82169050919050565b5f6100a48261007b565b9050919050565b6100b48161009a565b81146100be575f80fd5b50565b5f815190506100cf816100ab565b92915050565b5f602082840312156100ea576100e9610077565b5b5f6100f7848285016100c1565b91505092915050565b610ea18061010d5f395ff3fe608060405234801561000f575f80fd5b506004361061007b575f3560e01c80639a8a0592116100595780639a8a0592146100dc578063ac635901146100fa578063f28b03b814610118578063f6b4dfb41461014c5761007b565b806319eb4a901461007f57806373d4a13a146100a05780637a7f01a7146100be575b5f80fd5b61008761016a565b604051610097949392919061074c565b60405180910390f35b6100a86102b9565b6040516100b5919061079d565b60405180910390f35b6100c6610345565b6040516100d3919061079d565b60405180910390f35b6100e46103d1565b6040516100f191906107bd565b60405180910390f35b6101026103d6565b60405161010f9190610831565b60405180910390f35b610132600480360381019061012d91906109db565b6103fb565b604051610143959493929190610a77565b60405180910390f35b610154610660565b6040516101619190610add565b60405180910390f35b5f806060805f5460015f9054906101000a900473ffffffffffffffffffffffffffffffffffffffff16600260038180546101a390610b23565b80601f01602080910402602001604051908101604052809291908181526020018280546101cf90610b23565b801561021a5780601f106101f15761010080835404028352916020019161021a565b820191905f5260205f20905b8154815290600101906020018083116101fd57829003601f168201915b5050505050915080805461022d90610b23565b80601f016020809104026020016040519081016040528092919081815260200182805461025990610b23565b80156102a45780601f1061027b576101008083540402835291602001916102a4565b820191905f5260205f20905b81548152906001019060200180831161028757829003601f168201915b50505050509050935093509350935090919293565b600280546102c690610b23565b80601f01602080910402602001604051908101604052809291908181526020018280546102f290610b23565b801561033d5780601f106103145761010080835404028352916020019161033d565b820191905f5260205f20905b81548152906001019060200180831161032057829003601f168201915b505050505081565b6003805461035290610b23565b80601f016020809104026020016040519081016040528092919081815260200182805461037e90610b23565b80156103c95780601f106103a0576101008083540402835291602001916103c9565b820191905f5260205f20905b8154815290600101906020018083116103ac57829003601f168201915b505050505081565b5f5481565b60045f9054906101000a900473ffffffffffffffffffffffffffffffffffffffff1681565b5f806060806060885f819055508760015f6101000a81548173ffffffffffffffffffffffffffffffffffffffff021916908373ffffffffffffffffffffffffffffffffffffffff16021790555086600290816104579190610ce7565b5085600390816104679190610ce7565b505f60045f9054906101000a900473ffffffffffffffffffffffffffffffffffffffff1673ffffffffffffffffffffffffffffffffffffffff16633e9937788b8b8b8b6040518563ffffffff1660e01b81526004016104c9949392919061074c565b5f60405180830381865afa1580156104e3573d5f803e3d5ffd5b505050506040513d5f823e3d601f19601f8201168201806040525081019061050b9190610e24565b90505f5460015f9054906101000a900473ffffffffffffffffffffffffffffffffffffffff16600260038482805461054290610b23565b80601f016020809104026020016040519081016040528092919081815260200182805461056e90610b23565b80156105b95780601f10610590576101008083540402835291602001916105b9565b820191905f5260205f20905b81548152906001019060200180831161059c57829003601f168201915b505050505092508180546105cc90610b23565b80601f01602080910402602001604051908101604052809291908181526020018280546105f890610b23565b80156106435780601f1061061a57610100808354040283529160200191610643565b820191905f5260205f20905b81548152906001019060200180831161062657829003601f168201915b505050505091509550955095509550955050945094509450945094565b60015f9054906101000a900473ffffffffffffffffffffffffffffffffffffffff1681565b5f819050919050565b61069781610685565b82525050565b5f73ffffffffffffffffffffffffffffffffffffffff82169050919050565b5f6106c68261069d565b9050919050565b6106d6816106bc565b82525050565b5f81519050919050565b5f82825260208201905092915050565b8281835e5f83830152505050565b5f601f19601f8301169050919050565b5f61071e826106dc565b61072881856106e6565b93506107388185602086016106f6565b61074181610704565b840191505092915050565b5f60808201905061075f5f83018761068e565b61076c60208301866106cd565b818103604083015261077e8185610714565b905081810360608301526107928184610714565b905095945050505050565b5f6020820190508181035f8301526107b58184610714565b905092915050565b5f6020820190506107d05f83018461068e565b92915050565b5f819050919050565b5f6107f96107f46107ef8461069d565b6107d6565b61069d565b9050919050565b5f61080a826107df565b9050919050565b5f61081b82610800565b9050919050565b61082b81610811565b82525050565b5f6020820190506108445f830184610822565b92915050565b5f604051905090565b5f80fd5b5f80fd5b61086481610685565b811461086e575f80fd5b50565b5f8135905061087f8161085b565b92915050565b61088e816106bc565b8114610898575f80fd5b50565b5f813590506108a981610885565b92915050565b5f80fd5b5f80fd5b7f4e487b71000000000000000000000000000000000000000000000000000000005f52604160045260245ffd5b6108ed82610704565b810181811067ffffffffffffffff8211171561090c5761090b6108b7565b5b80604052505050565b5f61091e61084a565b905061092a82826108e4565b919050565b5f67ffffffffffffffff821115610949576109486108b7565b5b61095282610704565b9050602081019050919050565b828183375f83830152505050565b5f61097f61097a8461092f565b610915565b90508281526020810184848401111561099b5761099a6108b3565b5b6109a684828561095f565b509392505050565b5f82601f8301126109c2576109c16108af565b5b81356109d284826020860161096d565b91505092915050565b5f805f80608085870312156109f3576109f2610853565b5b5f610a0087828801610871565b9450506020610a118782880161089b565b935050604085013567ffffffffffffffff811115610a3257610a31610857565b5b610a3e878288016109ae565b925050606085013567ffffffffffffffff811115610a5f57610a5e610857565b5b610a6b878288016109ae565b91505092959194509250565b5f60a082019050610a8a5f83018861068e565b610a9760208301876106cd565b8181036040830152610aa98186610714565b90508181036060830152610abd8185610714565b90508181036080830152610ad18184610714565b90509695505050505050565b5f602082019050610af05f8301846106cd565b92915050565b7f4e487b71000000000000000000000000000000000000000000000000000000005f52602260045260245ffd5b5f6002820490506001821680610b3a57607f821691505b602082108103610b4d57610b4c610af6565b5b50919050565b5f819050815f5260205f209050919050565b5f6020601f8301049050919050565b5f82821b905092915050565b5f60088302610baf7fffffffffffffffffffffffffffffffffffffffffffffffffffffffffffffffff82610b74565b610bb98683610b74565b95508019841693508086168417925050509392505050565b5f610beb610be6610be184610685565b6107d6565b610685565b9050919050565b5f819050919050565b610c0483610bd1565b610c18610c1082610bf2565b848454610b80565b825550505050565b5f90565b610c2c610c20565b610c37818484610bfb565b505050565b5b81811015610c5a57610c4f5f82610c24565b600181019050610c3d565b5050565b601f821115610c9f57610c7081610b53565b610c7984610b65565b81016020851015610c88578190505b610c9c610c9485610b65565b830182610c3c565b50505b505050565b5f82821c905092915050565b5f610cbf5f1984600802610ca4565b1980831691505092915050565b5f610cd78383610cb0565b9150826002028217905092915050565b610cf0826106dc565b67ffffffffffffffff811115610d0957610d086108b7565b5b610d138254610b23565b610d1e828285610c5e565b5f60209050601f831160018114610d4f575f8415610d3d578287015190505b610d478582610ccc565b865550610dae565b601f198416610d5d86610b53565b5f5b82811015610d8457848901518255600182019150602085019450602081019050610d5f565b86831015610da15784890151610d9d601f891682610cb0565b8355505b6001600288020188555050505b505050505050565b5f610dc8610dc38461092f565b610915565b905082815260208101848484011115610de457610de36108b3565b5b610def8482856106f6565b509392505050565b5f82601f830112610e0b57610e0a6108af565b5b8151610e1b848260208601610db6565b91505092915050565b5f60208284031215610e3957610e38610853565b5b5f82015167ffffffffffffffff811115610e5657610e55610857565b5b610e6284828501610df7565b9150509291505056fea26469706673582212205aa5821ea620a80a194c9e8a4acdaf3677d5ae072240679350160f3b1616806864736f6c63430008190033",
  "immutableReferences": {},
  "source": "// SPDX-License-Identifier: MIT\npragma solidity ^0.8.0;\n\nimport \"./Mycelia.sol\";\nimport \"truffle/console.sol\";\n\ncontract SimpleStorage {\n    uint256 public chainId;\n    address public contractAddress;\n    bytes public data;\n    bytes public response;\n\n    Mycelia public mycelia;\n\n     constructor(address myceliaAddress) {\n        mycelia = Mycelia(myceliaAddress);\n    }\n\n    function storeValues(uint256 _chainId, address _contractAddress, bytes memory _data, bytes memory _response) \n    public returns (uint256, address, bytes memory, bytes memory, bytes memory) {\n        chainId = _chainId;\n        contractAddress = _contractAddress;\n        data = _data;\n        response = _response;\n\n        bytes memory verifiedResponse = mycelia.verify(_chainId, _contractAddress, _data, _response);\n        return (chainId, contractAddress, data, response, verifiedResponse);\n    }\n\n    function getValues() public view returns (uint256, address, bytes memory, bytes memory) {\n        return (chainId, contractAddress, data, response);\n    }\n}\n",
  "sourcePath": "/Users/anuragdeotale/Documents/dappp1/contracts/SimpleStorage.sol",
  "compiler": {
    "name": "solc",
    "version": "0.8.25+commit.b61c2a91.Emscripten.clang"
  },
  "schemaVersion": "3.4.16",
  "updatedAt": "2024-05-10T01:56:01.612Z",
  "networkType": "ethereum",
  "devdoc": {
    "kind": "dev",
    "methods": {},
    "version": 1
  },
  "userdoc": {
    "kind": "user",
    "methods": {},
    "version": 1
  }
}